:100000000FC100003BC1000039C1000037C1000032
:1000100035C1000033C1000031C100002FC1000014
:100020002DC100002BC1000029C1000027C1000024
:1000300025C1000023C1000021C100001FC1000034
:100040001DC100001BC1000019C1000017C1000044
:1000500015C1000013C1000011C10000A1C50000BE
:100060000DC1000074C5000049C5000007C10000B3
:1000700005C1000003C1000001C10000FFC0000075
:10008000FDC00000FBC00000F9C00000F7C0000088
:100090000CC50000E1C40000F1C00000EFC000008A
:1000A000EDC00000EBC00000E9C00000E7C00000A8
:1000B000E5C00000E3C00000E1C00000DFC00000B8
:1000C000DDC00000DBC00000D9C000009CC40000FF
:1000D00071C40000D3C0000044C4000019C4000073
:1000E000CDC0000019031C030B030F0313035303BC
:1000F000200324032A032E03320338033C03400366
:10010000530346034A034E03E003CD03E303D00346
:10011000D303D603D903DC0300000A0B02090C0D3C
:100120000E080703040100000000000000000000AA
:1001300000000000000000000000000000000000BF
:10014000000000001211100000000000000000007C
:10015000000000000000000000000000000000009F
:100160002200250028002B002E003100340002015F
:100170000000050108010B010000210024002700F8
:100180002A002D00300033000101000004010701A6
:100190000A0105050505070508080808020202020C
:1001A0000A0A080804040404010101010101010113
:1001B0000303030303030303040707070C0C0C0CDE
:1001C0000C0C0C0C020202020606060606060606C7
:1001D0000B0B0B0B0B0B0B0B010210202008081054
:1001E00020401020408002010201080402010102A7
:1001F0000408102040808040201008040201800480
:1002000002018040201008040201080402010102DA
:1002100004081020408001020408102040801A06C3
:1002200011241FBECFEFD1E2DEBFCDBF00E00CBF77
:1002300013E0A0E0B2E0EEE6F1E100E00BBF02C0A7
:1002400007900D92A439B107D9F726E0A4E9B3E0ED
:1002500001C01D92AA31B207E1F711E0C0E1D1E07F
:1002600000E005C021970109802FFE0172D7CF3031
:10027000D10780E00807B1F77CD577C7C1CECF9210
:10028000DF92EF92FF920F931F93CF93DF93EC01D6
:100290006A017B01E889F98982E080834115514E2A
:1002A00061057105A9F060E079E08DE390E0A701B8
:1002B00096012DD789019A010150110921093109AF
:1002C0003695279517950795980101151041A0F0CF
:1002D000E889F989108260E874E88EE190E0A7016E
:1002E000960115D7DA01C9010197A109B109B6959F
:1002F000A795979587959C01EC85FD853083EE85C4
:10030000FF852083188EEC89FD8986E08083EA8949
:10031000FB89808180618083EA89FB898081886094
:100320008083EA89FB89808180688083EA89FB89F0
:1003300080818F7D8083DF91CF911F910F91FF90FE
:10034000EF90DF90CF900895CF92DF92EF92FF92DF
:100350000F931F93CF93DF936C017A018B01C0E061
:10036000D0E0CE15DF0589F0D8016D918D01D60161
:10037000ED91FC910190F081E02DC6011995892B3A
:1003800011F47E0102C02196ECCFC701DF91CF911D
:100390001F910F91FF90EF90DF90CF900895FC0197
:1003A000A089B1898C91A689B78982FD0FC09C91E3
:1003B000818D8F5F8F73228D821749F0218DDF0130
:1003C000A20FB11D5D969C93818F08958C91089525
:1003D000FC01918D828D981761F0828DDF01A80F4D
:1003E000B11D5D968C91928D9F5F9F73928F90E06F
:1003F00008958FEF9FEF0895FC01918D828D9817DE
:1004000031F0828DE80FF11D858D90E008958FEF1A
:100410009FEF0895FC01918D228D892F90E0805CE3
:100420009F4F821B91098F739927089586EA93E065
:10043000F1DF21E0892B09F420E0822F089583E485
:1004400094E0E8DF21E0892B09F420E0822F089571
:1004500080EE94E0DFDF21E0892B09F420E0822F99
:1004600008958DE795E0D6DF21E0892B09F420E09F
:10047000822F0895FC01848DDF01A80FB11DA35ABE
:10048000BF4F2C91848D90E001968F739927848FB4
:10049000A689B7892C93A089B1898C9180648C93AB
:1004A000938D848D981306C00288F389E02D808196
:1004B0008F7D80830895EF92FF920F931F93CF93C8
:1004C000DF93EC0181E0888F9B8D8C8D981305C0A4
:1004D000E889F989808185FD23C0F62E0B8D10E017
:1004E0000F5F1F4F0F731127E02E8C8DE8120BC08A
:1004F0000FB607FCFACFE889F989808185FFF5CF2F
:10050000CE01B8DFF2CF8B8DFE01E80FF11DE35A6B
:10051000FF4FF0820B8FEA89FB898081806207C0E0
:10052000EE89FF896083E889F9898081806480830E
:1005300081E090E0DF91CF911F910F91FF90EF90BC
:100540000895CF93DF93EC01888D8823C1F0EA8969
:10055000FB89808185FD05C0A889B9898C9186FDBC
:100560000EC00FB607FCF5CF808185FFF2CFA889BA
:10057000B9898C9185FFEDCFCE017CDFE8CFDF918B
:10058000CF91089580E090E0892B19F06ADF811106
:1005900016C080E090E0892B19F05ADF811112C05B
:1005A00080E090E0892B19F04ADF81110EC080E0D5
:1005B00090E0892B79F03ADF81110AC008950E94FA
:1005C0000000E7CF0E940000EBCF0E940000EFCFB9
:1005D0000C9400000895362F90E0FC01E85EFE4F79
:1005E0004491FC01E852FE4F2491FC01EE56FE4F6F
:1005F0009491992309F46AC0442309F454C050E04B
:10060000FA013197E231F10508F04DC08827EE5824
:10061000FF4F8F4F9EC5809180008F7707C08091DC
:1006200080008F7D03C080918000877F8093800051
:100630003AC084B58F7702C084B58F7D84BD33C046
:100640008091B0008F7703C08091B0008F7D809340
:10065000B00029C0809190008F7707C080919000F2
:100660008F7D03C080919000877F809390001BC096
:100670008091A0008F7707C08091A0008F7D03C07C
:100680008091A000877F8093A0000DC08091200101
:100690008F7707C0809120018F7D03C0809120015A
:1006A000877F80932001E92FF0E0EE0FFF1FE25AD1
:1006B000FE4FA591B4918FB7F894EC91311103C01E
:1006C00020952E2301C02E2B2C938FBF08953FB76A
:1006D000F8948091990390919A03A0919B03B09113
:1006E0009C0326B5A89B05C02F3F19F00196A11DBC
:1006F000B11D3FBFBA2FA92F982F8827820F911DB8
:10070000A11DB11DBC01CD0142E0660F771F881FFE
:10071000991F4A95D1F708958F929F92AF92BF92F9
:10072000CF92DF92EF92FF926B017C01D0DF4B0101
:100730005C01C114D104E104F104E9F0C8DFDC017B
:10074000CB0188199909AA09BB09883E9340A105E4
:10075000B10578F321E0C21AD108E108F10888EE6A
:10076000880E83E0981EA11CB11CC114D104E104C1
:10077000F10421F7DECFFF90EF90DF90CF90BF9094
:10078000AF909F908F90089588309105C0F4FC0140
:100790008827EC57FF4F8F4FDCC480E699E008951F
:1007A00080E895E2089580E09BE4089580E096E972
:1007B000089580E091EE089580E993EC08950895FE
:1007C00080EB94E0089580EC92E10895DC01ED91D6
:1007D000FC910190F081E02D1994C3D4611571054D
:1007E00079F0FB0101900020E9F73197AF01461B3A
:1007F000570BDC01ED91FC910280F381E02D1994FF
:1008000080E090E0089569E172E08DE795E0E6CF41
:10081000CF93DF93BC018DE795E0E0DFEC01F3DFE0
:100820008C0F9D1FDF91CF9108958F929F92AF9271
:10083000BF920F931F93CF93DF93CDB7DEB7A197EE
:100840000FB6F894DEBF0FBECDBF19A2423008F438
:100850004AE08E010F5D1F4F842E912CA12CB12CEC
:10086000A501940154D4E62FB901CA010150110920
:10087000EA3014F4E05D01C0E95CD801EC93232B6D
:10088000242B252B69F7B8018DE795E0A7DFA1960A
:100890000FB6F894DEBF0FBECDBFDF91CF911F9191
:1008A0000F91BF90AF909F908F9008950F931F93DB
:1008B000CF93DF930DE913E0C0E0D0E080EE94E049
:1008C000A9DD892BD9F380EE94E082DDF8018193D4
:1008D0008F01BC01990F880B990B40E1A6DFC0FD89
:1008E0000BC0E0917D05F0917E050190F081E02D37
:1008F00060E28DE795E019952196C930D105F1F6B2
:1009000082DF80EE94E0DF91CF911F910F9119CE9D
:100910001F920F920FB60F9211240BB60F922F93C6
:100920003F934F935F936F937F938F939F93AF9377
:10093000BF93EF93FF9386EA93E09CDDFF91EF91E5
:10094000BF91AF919F918F917F916F915F914F91E7
:100950003F912F910F900BBE0F900FBE0F901F90E5
:1009600018951F920F920FB60F9211240BB60F928B
:100970002F933F934F935F936F937F938F939F93A7
:10098000AF93BF93EF93FF9386EA93E008DDFF9167
:10099000EF91BF91AF919F918F917F916F915F91F7
:1009A0004F913F912F910F900BBE0F900FBE0F9064
:1009B0001F9018951F920F920FB60F9211240BB62D
:1009C0000F922F933F934F935F936F937F938F93E8
:1009D0009F93AF93BF93EF93FF9383E494E04ADD3B
:1009E000FF91EF91BF91AF919F918F917F916F9107
:1009F0005F914F913F912F910F900BBE0F900FBEC3
:100A00000F901F9018951F920F920FB60F921124FE
:100A10000BB60F922F933F934F935F936F937F93F8
:100A20008F939F93AF93BF93EF93FF9383E494E0EF
:100A3000B6DCFF91EF91BF91AF919F918F917F9124
:100A40006F915F914F913F912F910F900BBE0F903F
:100A50000FBE0F901F9018951F920F920FB60F9216
:100A600011240BB60F922F933F934F935F936F9385
:100A70007F938F939F93AF93BF93EF93FF9380EEFA
:100A800094E0F8DCFF91EF91BF91AF919F918F912E
:100A90007F916F915F914F913F912F910F900BBE7E
:100AA0000F900FBE0F901F9018951F920F920FB6C8
:100AB0000F9211240BB60F922F933F934F935F9396
:100AC0006F937F938F939F93AF93BF93EF93FF9316
:100AD00080EE94E064DCFF91EF91BF91AF919F9124
:100AE0008F917F916F915F914F913F912F910F90D7
:100AF0000BBE0F900FBE0F901F9018951F920F9274
:100B00000FB60F9211240BB60F922F933F934F9372
:100B10005F936F937F938F939F93AF93BF93EF9365
:100B2000FF938DE795E0A6DCFF91EF91BF91AF9128
:100B30009F918F917F916F915F914F913F912F91F5
:100B40000F900BBE0F900FBE0F901F9018951F9225
:100B50000F920FB60F9211240BB60F922F933F9363
:100B60004F935F936F937F938F939F93AF93BF93B5
:100B7000EF93FF938DE795E012DCFF91EF91BF912A
:100B8000AF919F918F917F916F915F914F913F9125
:100B90002F910F900BBE0F900FBE0F901F901895C6
:100BA0001F920F920FB60F9211242F933F938F93A2
:100BB0009F93AF93BF938091950390919603A091DB
:100BC0009703B09198033091940323E0230F2D37BE
:100BD00020F40196A11DB11D05C026E8230F029641
:100BE000A11DB11D209394038093950390939603C8
:100BF000A0939703B09398038091990390919A03DF
:100C0000A0919B03B0919C030196A11DB11D8093FF
:100C1000990390939A03A0939B03B0939C03BF9175
:100C2000AF919F918F913F912F910F900FBE0F9099
:100C30001F901895E6EAF3E01382128248EE53E023
:100C400060E070E044835583668377838DE092E0B3
:100C50009183808325E331E03587248724E331E0E5
:100C60003787268720E331E0318B208B21E331E089
:100C7000338B228B22E331E0358B248B26E331E06A
:100C8000378B268B118E128E138E148EE3E4F4E0D4
:100C90001382128244835583668377839183808392
:100CA00025ED30E03587248724ED30E0378726872F
:100CB00020ED30E0318B208B21ED30E0338B228B27
:100CC00022ED30E0358B248B26ED30E0378B268B00
:100CD000118E128E138E148EE0EEF4E013821282C7
:100CE0004483558366837783918380832DEC30E042
:100CF000358724872CEC30E03787268728EC30E0D6
:100D0000318B208B29EC30E0338B228B2AEC30E0C6
:100D1000358B248B2EEC30E0378B268B118E128E88
:100D2000138E148EEDE7F5E013821282448355830F
:100D3000668377839183808385EC90E095878487B1
:100D400084EC90E09787868780EC90E0918B808B95
:100D500081EC90E0938B828B82EC90E0958B848B7E
:100D600086EC90E0978B868B118E128E138E148EEC
:100D70000895CF93DF93CDB7DEB7A9970FB6F89458
:100D8000DEBF0FBECDBF789484B5826084BD84B5CC
:100D9000816084BD85B5826085BD85B5816085BD76
:100DA00080916E00816080936E001092810080912E
:100DB00081008260809381008091810081608093B6
:100DC0008100809180008160809380008091B100DB
:100DD00084608093B1008091B00081608093B00006
:100DE0008091910082608093910080919100816058
:100DF0008093910080919000816080939000809119
:100E0000A10082608093A1008091A1008160809305
:100E1000A1008091A00081608093A00080912101B9
:100E20008260809321018091210181608093210162
:100E30008091200181608093200180917A008460FC
:100E400080937A0080917A00826080937A0080910A
:100E50007A00816080937A0080917A008068809324
:100E60007A001092C100EEEEF1E02491E8EAF1E0A0
:100E70008491882399F090E0880F991FFC01E8582D
:100E8000FE4FA591B491FC01E25AFE4F85919491D9
:100E90008FB7F894EC91E22BEC938FBF61E086E181
:100EA0009ADB40E052EC61E070E08DE795E0E7D935
:100EB0008CE192E0ADDC8EE192E0AADC8CE192E084
:100EC000A7DC83E090E060DCAC01990F660B770B48
:100ED00080EE94E0D4D960E086E17DDB64E670E0EA
:100EE00080E090E019DC67E372E080EE94E076DC6D
:100EF00062E370E080E090E00FDC6AE372E080EE95
:100F000094E06CDC62E370E080E090E005DC60E49B
:100F100072E080EE94E062DC62E370E080E090E0FA
:100F2000FBDB67E472E080EE94E058DC62E370E0A3
:100F300080E090E0F1DB60E572E080EE94E04EDC72
:100F400062E370E080E090E0E7DB68E572E080EE6D
:100F500094E044DC62E370E080E090E0DDDB62E39B
:100F600070E080E090E0D8DB4EDC80E692E050DC80
:100F700080EE94E04FDA892B41F080EE94E028DA9D
:100F8000BC018DE795E022DCF3CF3DDC62E370E04D
:100F900080E090E0C1DB61E086E11DDB60E086E19E
:100FA0001ADB64E670E080E090E0B6DB62E370E0BC
:100FB00080E090E0B1DB62E872E080EE94E00EDC6D
:100FC00062E370E080E090E0A7DB01E010E080EEFB
:100FD00094E020DA892BC9F080EE94E0F9D9F82E5C
:100FE0006AE070E080E090E097DB0130110521F4C9
:100FF0000ADC88E892E00CDC6F2DFF0C770B8DE7A4
:1010000095E0E4DB0F5F1F4FE2CF62E370E080E02A
:1010100090E082DB61E086E1DEDA89E0B82E6E01E5
:1010200083E1C80ED11CE0E0F2E0DE0191968B2D49
:1010300001900D928A95E1F7DE019196FE013196BD
:101040007F01EC15FD0529F08D9190E0819391933E
:10105000F8CF00E010E00930110509F14701F70170
:10106000619171917F0180EE94E0B0DBF4016081C9
:101070007181072E000C880B990B40E1D6DB00FD37
:1010800005C06CE172E08DE795E0A8DB0830110542
:1010900019F48BE192E0BCDB0F5F1F4FDCCF68EEF1
:1010A00073E080E090E038DB01DC80EE94E0B2D9C0
:1010B000019759F5FBDB80919D038C3ED1F040F404
:1010C0008A3EE9F0C8F4893EE9F488E593E01CC063
:1010D0008E3E49F058F08F3FA9F48EE992E098DBFC
:1010E00083EB92E011C080EC92E00EC082EE92E0C1
:1010F0000BC084E093E008C080E293E005C08CE37D
:1011000093E002C084E793E083DB3CDA8CCFA1E27A
:101110001A2EAA1BBB1BFD010DC0AA1FBB1FEE1F71
:10112000FF1FA217B307E407F50720F0A21BB30BBC
:10113000E40BF50B661F771F881F991F1A9469F738
:1011400060957095809590959B01AC01BD01CF0194
:101150000895EE0FFF1F881F8BBF0790F691E02DBB
:0E116000199481E090E0F89400C0F894FFCF5D
:10116E00FFFFFFFFFFFFFFFFFF000000005B02A479
:10117E00010A02E801FC01A1020D0A0020004465EB
:10118E006275673A2053657269616C20302069730D
:10119E002052656164790041540041542B5038004F
:1011AE0041542B4655330041542B423936303000D2
:1011BE0041542B433030310041542B55384E3100C1
:1011CE0048432D3132206D6F64756C6520686173F4
:1011DE00206265656E20636F6E6669677572656401
:1011EE003A0041542B52580048432D31322043755A
:1011FE007272656E7420636F6E6669673A0044653D
:10120E00627567207061636B6574207265636976C1
:10121E006564004C6F6F702053796365736573005E
:10122E0052465F53657475705F54656C656D657479
:10123E007279207061636B6574207265636976657F
:10124E00640052585F52656164795F54656C656DD8
:10125E0065747279207061636B6574207265636961
:10126E007665640054656C656D657472795F533094
:10127E00207061636B6574207265636976656400C6
:10128E0054656C656D657472795F5331207061635E
:10129E006B657420726563697665640054656C6570
:1012AE006D657472795F5332207061636B65742063
:1012BE00726563697665640054656C656D657472FC
:1012CE00795F5333207061636B6574207265636957
:1012DE00766564004552524F522043616E2774204A
:1012EE00646574656374206D6573736167652074DE
:0412FE00797065009E
:00000001FF
