:100000000FC100003BC1000039C1000037C1000032
:1000100035C1000033C1000031C100002FC1000014
:100020002DC100002BC1000029C1000027C1000024
:1000300025C1000023C1000021C100001FC1000034
:100040001DC100001BC1000019C1000017C1000044
:1000500015C1000013C1000011C1000026C5000039
:100060000DC10000F9C40000CEC4000007C10000AB
:1000700005C1000003C1000001C10000FFC0000075
:10008000FDC00000FBC00000F9C00000F7C0000088
:1000900091C4000066C40000F1C00000EFC0000081
:1000A000EDC00000EBC00000E9C00000E7C00000A8
:1000B000E5C00000E3C00000E1C00000DFC00000B8
:1000C000DDC00000DBC00000D9C0000021C400007A
:1000D000F6C30000D3C00000C9C300009EC30000E7
:1000E000CDC0000019031C030B030F0313035303BC
:1000F000200324032A032E03320338033C03400366
:10010000530346034A034E03E003CD03E303D00346
:10011000D303D603D903DC0300000A0B02090C0D3C
:100120000E080703040100000000000000000000AA
:1001300000000000000000000000000000000000BF
:10014000000000001211100000000000000000007C
:10015000000000000000000000000000000000009F
:100160002200250028002B002E003100340002015F
:100170000000050108010B010000210024002700F8
:100180002A002D00300033000101000004010701A6
:100190000A0105050505070508080808020202020C
:1001A0000A0A080804040404010101010101010113
:1001B0000303030303030303040707070C0C0C0CDE
:1001C0000C0C0C0C020202020606060606060606C7
:1001D0000B0B0B0B0B0B0B0B010210202008081054
:1001E00020401020408002010201080402010102A7
:1001F0000408102040808040201008040201800480
:1002000002018040201008040201080402010102DA
:1002100004081020408001020408102040809F053F
:1002200011241FBECFEFD1E2DEBFCDBF00E00CBF77
:1002300012E0A0E0B2E0E6E8FFE000E00BBF02C0A1
:1002400007900D92A639B107D9F725E0A6E9B2E0EB
:1002500001C01D92A331B207E1F711E0C0E1D1E086
:1002600000E005C021970109802FFE017ED6CF3026
:10027000D10780E00807B1F701D583C6C1CECF9280
:10028000DF92EF92FF920F931F93CF93DF93EC01D6
:100290006A017B01E889F98982E080834115514E2A
:1002A00061057105A9F060E079E08DE390E0A701B8
:1002B000960139D689019A010150110921093109A4
:1002C0003695279517950795980101151041A0F0CF
:1002D000E889F989108260E874E88EE190E0A7016E
:1002E000960121D6DA01C9010197A109B109B69594
:1002F000A795979587959C01EC85FD853083EE85C4
:10030000FF852083188EEC89FD8986E08083EA8949
:10031000FB89808180618083EA89FB898081886094
:100320008083EA89FB89808180688083EA89FB89F0
:1003300080818F7D8083DF91CF911F910F91FF90FE
:10034000EF90DF90CF900895CF92DF92EF92FF92DF
:100350000F931F93CF93DF936C017A018B01C0E061
:10036000D0E0CE15DF0589F0D8016D918D01D60161
:10037000ED91FC910190F081E02DC6011995892B3A
:1003800011F47E0102C02196ECCFC701DF91CF911D
:100390001F910F91FF90EF90DF90CF900895FC0197
:1003A000A089B1898C91A689B78982FD0FC09C91E3
:1003B000818D8F5F8F73228D821749F0218DDF0130
:1003C000A20FB11D5D969C93818F08958C91089525
:1003D000FC01918D828D981761F0828DDF01A80F4D
:1003E000B11D5D968C91928D9F5F9F73928F90E06F
:1003F00008958FEF9FEF0895FC01918D828D9817DE
:1004000031F0828DE80FF11D858D90E008958FEF1A
:100410009FEF0895FC01918D228D892F90E0805CE3
:100420009F4F821B91098F73992708958FE992E05E
:10043000F1DF21E0892B09F420E0822F08958CE37D
:1004400093E0E8DF21E0892B09F420E0822F089572
:1004500089ED93E0DFDF21E0892B09F420E0822F92
:10046000089586E794E0D6DF21E0892B09F420E0A7
:10047000822F0895FC01848DDF01A80FB11DA35ABE
:10048000BF4F2C91848D90E001968F739927848FB4
:10049000A689B7892C93A089B1898C9180648C93AB
:1004A000938D848D981306C00288F389E02D808196
:1004B0008F7D80830895EF92FF920F931F93CF93C8
:1004C000DF93EC0181E0888F9B8D8C8D981305C0A4
:1004D000E889F989808185FD23C0F62E0B8D10E017
:1004E0000F5F1F4F0F731127E02E8C8DE8120BC08A
:1004F0000FB607FCFACFE889F989808185FFF5CF2F
:10050000CE01B8DFF2CF8B8DFE01E80FF11DE35A6B
:10051000FF4FF0820B8FEA89FB898081806207C0E0
:10052000EE89FF896083E889F9898081806480830E
:1005300081E090E0DF91CF911F910F91FF90EF90BC
:100540000895CF93DF93EC01888D8823C1F0EA8969
:10055000FB89808185FD05C0A889B9898C9186FDBC
:100560000EC00FB607FCF5CF808185FFF2CFA889BA
:10057000B9898C9185FFEDCFCE017CDFE8CFDF918B
:10058000CF91089580E090E0892B19F06ADF811106
:1005900016C080E090E0892B19F05ADF811112C05B
:1005A00080E090E0892B19F04ADF81110EC080E0D5
:1005B00090E0892B79F03ADF81110AC008950E94FA
:1005C0000000E7CF0E940000EBCF0E940000EFCFB9
:1005D0000C9400000895362F90E0FC01E85EFE4F79
:1005E0004491FC01E852FE4F2491FC01EE56FE4F6F
:1005F0009491992309F46AC0442309F454C050E04B
:10060000FA013197E231F10508F04DC08827EE5824
:10061000FF4F8F4FAAC4809180008F7707C08091D1
:1006200080008F7D03C080918000877F8093800051
:100630003AC084B58F7702C084B58F7D84BD33C046
:100640008091B0008F7703C08091B0008F7D809340
:10065000B00029C0809190008F7707C080919000F2
:100660008F7D03C080919000877F809390001BC096
:100670008091A0008F7707C08091A0008F7D03C07C
:100680008091A000877F8093A0000DC08091200101
:100690008F7707C0809120018F7D03C0809120015A
:1006A000877F80932001E92FF0E0EE0FFF1FE25AD1
:1006B000FE4FA591B4918FB7F894EC91311103C01E
:1006C00020952E2301C02E2B2C938FBF08953FB76A
:1006D000F89480919B0290919C02A0919D02B09110
:1006E0009E0226B5A89B05C02F3F19F00196A11DBB
:1006F000B11D3FBFBA2FA92F982F8827820F911DB8
:10070000A11DB11DBC01CD0142E0660F771F881FFE
:10071000991F4A95D1F708958F929F92AF92BF92F9
:10072000CF92DF92EF92FF926B017C01D0DF4B0101
:100730005C01C114D104E104F104E9F0C8DFDC017B
:10074000CB0188199909AA09BB09883E9340A105E4
:10075000B10578F321E0C21AD108E108F10888EE6A
:10076000880E83E0981EA11CB11CC114D104E104C1
:10077000F10421F7DECFFF90EF90DF90CF90BF9094
:10078000AF909F908F90089588309105C0F4FC0140
:100790008827EC57FF4F8F4FE8C380E699E0089514
:1007A00080E895E2089580E09BE4089580E096E972
:1007B000089580E091EE089580E993EC08950895FE
:1007C00080EB94E0089580EC92E10895D6D3611512
:1007D000710579F0FB0101900020E9F73197AF0135
:1007E000461B570BDC01ED91FC910280F381E02D5B
:1007F000199480E090E00895CF93DF93BC0186E7E1
:1008000094E0E5DFEC0160E172E086E794E0DFDF91
:100810008C0F9D1FDF91CF9108951F920F920FB6FD
:100820000F9211240BB60F922F933F934F935F9328
:100830006F937F938F939F93AF93BF93EF93FF93A8
:100840008FE992E017DEFF91EF91BF91AF919F91F9
:100850008F917F916F915F914F913F912F910F9069
:100860000BBE0F900FBE0F901F9018951F920F9206
:100870000FB60F9211240BB60F922F933F934F9305
:100880005F936F937F938F939F93AF93BF93EF93F8
:10089000FF938FE992E083DDFF91EF91BF91AF91DC
:1008A0009F918F917F916F915F914F913F912F9188
:1008B0000F900BBE0F900FBE0F901F9018951F92B8
:1008C0000F920FB60F9211240BB60F922F933F93F6
:1008D0004F935F936F937F938F939F93AF93BF9348
:1008E000EF93FF938CE393E0C5DDFF91EF91BF9110
:1008F000AF919F918F917F916F915F914F913F91B8
:100900002F910F900BBE0F900FBE0F901F90189558
:100910001F920F920FB60F9211240BB60F922F93C6
:100920003F934F935F936F937F938F939F93AF9377
:10093000BF93EF93FF938CE393E031DDFF91EF9151
:10094000BF91AF919F918F917F916F915F914F91E7
:100950003F912F910F900BBE0F900FBE0F901F90E5
:1009600018951F920F920FB60F9211240BB60F928B
:100970002F933F934F935F936F937F938F939F93A7
:10098000AF93BF93EF93FF9389ED93E073DDFF91F6
:10099000EF91BF91AF919F918F917F916F915F91F7
:1009A0004F913F912F910F900BBE0F900FBE0F9064
:1009B0001F9018951F920F920FB60F9211240BB62D
:1009C0000F922F933F934F935F936F937F938F93E8
:1009D0009F93AF93BF93EF93FF9389ED93E0DFDC99
:1009E000FF91EF91BF91AF919F918F917F916F9107
:1009F0005F914F913F912F910F900BBE0F900FBEC3
:100A00000F901F9018951F920F920FB60F921124FE
:100A10000BB60F922F933F934F935F936F937F93F8
:100A20008F939F93AF93BF93EF93FF9386E794E0E9
:100A300021DDFF91EF91BF91AF919F918F917F91B8
:100A40006F915F914F913F912F910F900BBE0F903F
:100A50000FBE0F901F9018951F920F920FB60F9216
:100A600011240BB60F922F933F934F935F936F9385
:100A70007F938F939F93AF93BF93EF93FF9386E7FB
:100A800094E08DDCFF91EF91BF91AF919F918F9199
:100A90007F916F915F914F913F912F910F900BBE7E
:100AA0000F900FBE0F901F9018951F920F920FB6C8
:100AB0000F9211242F933F938F939F93AF93BF93E4
:100AC0008091970290919802A0919902B0919A0218
:100AD0003091960223E0230F2D3720F40196A11DBB
:100AE000B11D05C026E8230F0296A11DB11D20935C
:100AF00096028093970290939802A0939902B093E4
:100B00009A0280919B0290919C02A0919D02B091CB
:100B10009E020196A11DB11D80939B0290939C02A1
:100B2000A0939D02B0939E02BF91AF919F918F9130
:100B30003F912F910F900FBE0F901F901895EFE9E6
:100B4000F2E01382128248EE53E060E070E04483EA
:100B500055836683778384E092E09183808325E3E5
:100B600031E03587248724E331E03787268720E387
:100B700031E0318B208B21E331E0338B228B22E378
:100B800031E0358B248B26E331E0378B268B118EB9
:100B9000128E138E148EECE3F3E0138212824483E0
:100BA0005583668377839183808325ED30E0358795
:100BB000248724ED30E03787268720ED30E0318B25
:100BC000208B21ED30E0338B228B22ED30E0358B12
:100BD000248B26ED30E0378B268B118E128E138EF0
:100BE000148EE9EDF3E01382128244835583668309
:100BF0007783918380832DEC30E0358724872CEC3C
:100C000030E03787268728EC30E0318B208B29ECC9
:100C100030E0338B228B2AEC30E0358B248B2EECAA
:100C200030E0378B268B118E128E138E148EE6E7F2
:100C3000F4E0138212824483558366837783918321
:100C4000808385EC90E09587848784EC90E097879B
:100C5000868780EC90E0918B808B81EC90E0938B89
:100C6000828B82EC90E0958B848B86EC90E0978B66
:100C7000868B118E128E138E148E0895789484B5FF
:100C8000826084BD84B5816084BD85B5826085BD88
:100C900085B5816085BD80916E00816080936E0016
:100CA0001092810080918100826080938100809108
:100CB00081008160809381008091800081608093B9
:100CC00080008091B10084608093B1008091B00079
:100CD00081608093B0008091910082608093910048
:100CE000809191008160809391008091900081605B
:100CF000809390008091A10082608093A1008091F8
:100D0000A10081608093A1008091A0008160809308
:100D1000A0008091210182608093210180912101B6
:100D20008160809321018091200181608093200166
:100D300080917A00846080937A0080917A0082604A
:100D400080937A0080917A00816080937A0080910C
:100D50007A00806880937A001092C100EEEEF1E094
:100D60002491E8EAF1E08491882399F090E0880FDB
:100D7000991FFC01E858FE4FA591B491FC01E25A7D
:100D8000FE4F859194918FB7F894EC91E22BEC9300
:100D90008FBF61E086E11FDC40E052EC61E070E073
:100DA00086E794E06CDA83E192E026DD85E192E06B
:100DB00023DD83E192E020DD83E090E0E5DCAC011F
:100DC000990F660B770B89ED93E059DA60E086E1C5
:100DD00002DC64E670E080E090E09EDC6EE272E0AF
:100DE00089ED93E0F4DC62E370E080E090E094DC75
:100DF00061E372E089ED93E0EADC62E370E080E0B9
:100E000090E08ADC67E372E089ED93E0E0DC62E386
:100E100070E080E090E080DC6EE372E089ED93E0CA
:100E2000D6DC62E370E080E090E076DC67E472E0BC
:100E300089ED93E0CCDC62E370E080E090E06CDC74
:100E40006FE472E089ED93E0C2DC62E370E080E081
:100E500090E062DC62E370E080E090E05DDC60E105
:100E600072E086E794E0B3DC87E592E0C5DC89EDCB
:100E700093E0D0DA892B41F089ED93E0A9DA682F6D
:100E800086E794E018DBF3CF60E172E086E794E058
:100E90009EDC62E370E080E090E03EDC61E086E1B1
:100EA0009ADB60E086E197DB64E670E080E090E04A
:100EB00033DC62E370E080E090E02EDC69E772E012
:100EC00089ED93E084DC62E370E080E090E024DC74
:100ED000C1E0D0E089ED93E09DDA892BD1F089ED76
:100EE00093E076DA182F6AE070E080E090E014DC9E
:100EF000C130D10541F460E172E086E794E067DC3F
:100F00008FE792E079DC612F86E794E0D4DA2196CE
:100F1000E1CF62E370E080E090E0FEDB61E086E13B
:100F20005ADB30DBFECFA1E21A2EAA1BBB1BFD0150
:100F30000DC0AA1FBB1FEE1FFF1FA217B307E407B8
:100F4000F50720F0A21BB30BE40BF50B661F771F10
:100F5000881F991F1A9469F76095709580959095F0
:100F60009B01AC01BD01CF010895EE0FFF1F881F4B
:100F70008BBF0790F691E02D199481E090E0F894F2
:060F800000C0F894FFCF51
:100F8600000000005B02A4010A02E801FC01A102C4
:100F96000D0A00200044656275673A205365726940
:100FA600616C203020697320526561647900415478
:100FB6000041542B50380041542B465533004154C0
:100FC6002B42393630300041542B4330303100410A
:100FD600542B55384F310048432D3132206D6F6404
:100FE600756C6520686173206265656E20636F6E3F
:100FF600666967757265643A0041542B5258004819
:10100600432D31322043757272656E7420636F6EA4
:061016006669673A000064
:00000001FF
