:1000000002C100002EC100002CC100002AC1000066
:1000100028C1000026C1000024C1000022C1000048
:1000200020C100001EC100001CC100001AC1000058
:1000300018C1000016C1000014C1000012C1000068
:1000400010C100000EC100000CC100000AC1000078
:1000500008C1000006C1000004C10000F1C4000096
:1000600000C10000C4C4000099C40000FAC0000030
:10007000F8C00000F6C00000F4C00000F2C00000AC
:10008000F0C00000EEC00000ECC00000EAC00000BC
:100090005CC4000031C40000E4C00000E2C0000005
:1000A000E0C00000DEC00000DCC00000DAC00000DC
:1000B000D8C00000D6C00000D4C00000D2C00000EC
:1000C000D0C00000CEC00000CCC00000ECC30000D7
:1000D000C1C30000C6C0000094C3000069C3000093
:1000E000C0C0000063035003660353035603590363
:1000F0005C035F0302070507F406F806FC063C07ED
:1001000009070D07130717071B07210725072907ED
:100110003C072F073307370700002200250028007F
:100120002B002E00310034000201000005010801FF
:100130000B0105050505070508080808020202026B
:100140000A0A080804040404010101010101010173
:100150000303030303030303040707070C0C0C0C3E
:100160000C0C0C0C02020202060606060606060627
:100170000B0B0B0B0B0B0B0B0102102020080810B4
:100180002040102040800201020108040201010207
:1001900004081020408080402010080402018004E0
:1001A000020180402010080402010804020101023B
:1001B0000408102040800102040810204080000044
:1001C0000A0B02090C0D0E080703040100000000D1
:1001D000000000000000000000000000000000001F
:1001E00000000000000000000000121110000000DC
:1001F00000000000000000000000000000000000FF
:10020000000000006A0511241FBECFEFD1E2DEBF5F
:10021000CDBF00E00CBF12E0A0E0B2E0E0E2F1E10F
:1002200000E00BBF02C007900D92A235B107D9F7CD
:1002300025E0A2E5B2E001C01D92AF31B207E1F7BF
:1002400011E0C3E0D1E000E005C021970109802F53
:10025000FE0136D7C230D10780E00807B1F7EBD4F2
:100260005DC7CECECF92DF92EF92FF920F931F9396
:10027000CF93DF93EC016A017B01E889F98982E081
:1002800080834115514E61057105A9F060E079E068
:100290008DE390E0A70196011FD789019A010150D3
:1002A0001109210931093695279517950795980168
:1002B00001151041A0F0E889F989108260E874E81E
:1002C0008EE190E0A701960107D7DA01C9010197F5
:1002D000A109B109B695A795979587959C01EC85DD
:1002E000FD853083EE85FF852083188EEC89FD899E
:1002F00086E08083EA89FB89808180618083EA8946
:10030000FB89808188608083EA89FB89808180689D
:100310008083EA89FB8980818F7D8083DF91CF9103
:100320001F910F91FF90EF90DF90CF900895CF92A3
:10033000DF92EF92FF920F931F93CF93DF936C01A5
:100340007A018B01C0E0D0E0CE15DF0589F0D8013D
:100350006D918D01D601ED91FC910190F081E02D20
:10036000C6011995892B11F47E0102C02196ECCFAC
:10037000C701DF91CF911F910F91FF90EF90DF9018
:10038000CF900895FC01A089B1898C91A689B78985
:1003900082FD0FC09C91818D8F5F8F73228D82179C
:1003A00049F0218DDF01A20FB11D5D969C93818FD5
:1003B00008958C910895FC01918D828D981761F0BC
:1003C000828DDF01A80FB11D5D968C91928D9F5F8C
:1003D0009F73928F90E008958FEF9FEF0895FC0137
:1003E000918D828D981731F0828DE80FF11D858DEA
:1003F00090E008958FEF9FEF0895FC01918D228D7D
:10040000892F90E0805C9F4F821B91098F73992701
:10041000089583E692E0F1DF21E0892B09F420E0E2
:10042000822F089580E093E0E8DF21E0892B09F432
:1004300020E0822F08958DE993E0DFDF21E0892B12
:1004400009F420E0822F08958AE394E0D6DF21E0CA
:10045000892B09F420E0822F0895FC01848DDF01AF
:10046000A80FB11DA35ABF4F2C91848D90E0019627
:100470008F739927848FA689B7892C93A089B18916
:100480008C9180648C93938D848D981306C0028820
:10049000F389E02D80818F7D80830895EF92FF9214
:1004A0000F931F93CF93DF93EC0181E0888F9B8D97
:1004B0008C8D981305C0E889F989808185FD23C05A
:1004C000F62E0B8D10E00F5F1F4F0F731127E02EDC
:1004D0008C8DE8120BC00FB607FCFACFE889F989BA
:1004E000808185FFF5CFCE01B8DFF2CF8B8DFE0185
:1004F000E80FF11DE35AFF4FF0820B8FEA89FB8969
:100500008081806207C0EE89FF896083E889F9896C
:1005100080818064808381E090E0DF91CF911F91A2
:100520000F91FF90EF900895CF93DF93EC01888DAA
:100530008823C1F0EA89FB89808185FD05C0A889EF
:10054000B9898C9186FD0EC00FB607FCF5CF80816E
:1005500085FFF2CFA889B9898C9185FFEDCFCE01B7
:100560007CDFE8CFDF91CF91089580E090E0892B88
:1005700019F06ADF811116C080E090E0892B19F034
:100580005ADF811112C080E090E0892B19F04ADF18
:1005900081110EC080E090E0892B79F03ADF811163
:1005A0000AC008950E940000E7CF0E940000EBCF30
:1005B0000E940000EFCF0C94000008953FB7F8941C
:1005C0008091570290915802A0915902B0915A021D
:1005D00026B5A89B05C02F3F19F00196A11DB11D9E
:1005E0003FBFBA2FA92F982F8827820F911DA11DD9
:1005F000B11DBC01CD0142E0660F771F881F991F16
:100600004A95D1F708958F929F92AF92BF92CF9261
:10061000DF92EF92FF926B017C01D0DF4B015C0116
:10062000C114D104E104F104E9F0C8DFDC01CB011D
:1006300088199909AA09BB09883E9340A105B1050B
:1006400078F321E0C21AD108E108F10888EE880E9B
:1006500083E0981EA11CB11CC114D104E104F10473
:1006600021F7DECFFF90EF90DF90CF90BF90AF905B
:100670009F908F9008952FB7F894609153027091D6
:10068000540280915502909156022FBF08958830F0
:100690009105C0F4FC018827EE58FF4F8F4F10C51D
:1006A00080E699E0089580E895E2089580E09BE473
:1006B000089580E096E9089580E091EE089580E93C
:1006C00093EC0895089580EB94E0089580EC92E116
:1006D0000895FED46115710579F0FB0101900020A9
:1006E000E9F73197AF01461B570BDC01ED91FC9107
:1006F0000280F381E02D199480E090E008954F92FC
:100700005F926F927F92EF92FF920F931F93CF931E
:10071000DF93CDB7DEB7A1970FB6F894DEBF0FBE5B
:10072000CDBF7C01FA01CB0119A2223008F42AE0E6
:100730008E010F5D1F4F422E512C612C712CBF0179
:10074000A3019201C9D4F901CA01015011096A300B
:1007500014F4605D01C0695CD8016C93232B242BD9
:10076000252B69F7B801C701B5DFA1960FB6F8943C
:10077000DEBF0FBECDBFDF91CF911F910F91FF90D4
:10078000EF907F906F905F904F9008950F931F931D
:10079000CF93DF93EC019EDF8C016FE172E0CE011D
:1007A00099DF800F911FDF91CF911F910F910895D5
:1007B0001F920F920FB60F9211240BB60F922F9328
:1007C0003F934F935F936F937F938F939F93AF93D9
:1007D000BF93EF93FF9383E692E03FDEFF91EF91AB
:1007E000BF91AF919F918F917F916F915F914F9149
:1007F0003F912F910F900BBE0F900FBE0F901F9047
:1008000018951F920F920FB60F9211240BB60F92EC
:100810002F933F934F935F936F937F938F939F9308
:10082000AF93BF93EF93FF9383E692E0ABDDFF912D
:10083000EF91BF91AF919F918F917F916F915F9158
:100840004F913F912F910F900BBE0F900FBE0F90C5
:100850001F9018951F920F920FB60F9211240BB68E
:100860000F922F933F934F935F936F937F938F9349
:100870009F93AF93BF93EF93FF9380E093E0EDDD01
:10088000FF91EF91BF91AF919F918F917F916F9168
:100890005F914F913F912F910F900BBE0F900FBE24
:1008A0000F901F9018951F920F920FB60F92112460
:1008B0000BB60F922F933F934F935F936F937F935A
:1008C0008F939F93AF93BF93EF93FF9380E093E059
:1008D00059DDFF91EF91BF91AF919F918F917F91E2
:1008E0006F915F914F913F912F910F900BBE0F90A1
:1008F0000FBE0F901F9018951F920F920FB60F9278
:1009000011240BB60F922F933F934F935F936F93E6
:100910007F938F939F93AF93BF93EF93FF938DE953
:1009200093E09BDDFF91EF91BF91AF919F918F91EC
:100930007F916F915F914F913F912F910F900BBEDF
:100940000F900FBE0F901F9018951F920F920FB629
:100950000F9211240BB60F922F933F934F935F93F7
:100960006F937F938F939F93AF93BF93EF93FF9377
:100970008DE993E007DDFF91EF91BF91AF919F91DA
:100980008F917F916F915F914F913F912F910F9038
:100990000BBE0F900FBE0F901F9018951F920F92D5
:1009A0000FB60F9211240BB60F922F933F934F93D4
:1009B0005F936F937F938F939F93AF93BF93EF93C7
:1009C000FF938AE394E049DDFF91EF91BF91AF91EE
:1009D0009F918F917F916F915F914F913F912F9157
:1009E0000F900BBE0F900FBE0F901F9018951F9287
:1009F0000F920FB60F9211240BB60F922F933F93C5
:100A00004F935F936F937F938F939F93AF93BF9316
:100A1000EF93FF938AE394E0B5DCFF91EF91BF91F0
:100A2000AF919F918F917F916F915F914F913F9186
:100A30002F910F900BBE0F900FBE0F901F90189527
:100A40001F920F920FB60F9211242F933F938F9303
:100A50009F93AF93BF938091530290915402A091C2
:100A60005502B09156023091520223E0230F2D37E8
:100A700020F40196A11DB11D05C026E8230F0296A2
:100A8000A11DB11D209352028093530290935402F2
:100A9000A0935502B093560280915702909158024C
:100AA000A0915902B0915A020196A11DB11D8093E7
:100AB000570290935802A0935902B0935A02BF91E3
:100AC000AF919F918F913F912F910F900FBE0F90FB
:100AD0001F901895E3E6F2E01382128248EE53E08D
:100AE00060E070E0448355836683778384E092E01E
:100AF0009183808325E331E03587248724E331E047
:100B00003787268720E331E0318B208B21E331E0EA
:100B1000338B228B22E331E0358B248B26E331E0CB
:100B2000378B268B118E128E138E148EE0E0F3E03D
:100B300013821282448355836683778391838083F3
:100B400025ED30E03587248724ED30E03787268790
:100B500020ED30E0318B208B21ED30E0338B228B88
:100B600022ED30E0358B248B26ED30E0378B268B61
:100B7000118E128E138E148EEDE9F3E01382128221
:100B80004483558366837783918380832DEC30E0A3
:100B9000358724872CEC30E03787268728EC30E037
:100BA000318B208B29EC30E0338B228B2AEC30E028
:100BB000358B248B2EEC30E0378B268B118E128EEA
:100BC000138E148EEAE3F4E0138212824483558379
:100BD000668377839183808385EC90E09587848713
:100BE00084EC90E09787868780EC90E0918B808BF7
:100BF00081EC90E0938B828B82EC90E0958B848BE0
:100C000086EC90E0978B868B118E128E138E148E4D
:100C1000E7EDF4E01682178210861186128613869D
:100C20001486158616861786108A118A128A138AE8
:100C3000148A158A0895789484B5826084BD84B539
:100C4000816084BD85B5826085BD85B5816085BDC7
:100C500080916E00816080936E001092810080917F
:100C60008100826080938100809181008160809307
:100C70008100809180008160809380008091B1002C
:100C800084608093B1008091B00081608093B00057
:100C900080919100826080939100809191008160A9
:100CA000809391008091900081608093900080916A
:100CB000A10082608093A1008091A1008160809357
:100CC000A1008091A00081608093A000809121010B
:100CD00082608093210180912101816080932101B4
:100CE0008091200181608093200180917A0084604E
:100CF00080937A0080917A00826080937A0080915C
:100D00007A00816080937A0080917A008068809375
:100D10007A001092C10010921B0510921C051092CF
:100D20001D0510921E051092D9041092DA0410923B
:100D3000DB041092DC0460ED77E080E090E063DC9F
:100D40008AE394E090931A058093190540E052ECF1
:100D500061E070E087DA8FDC6093D9047093DA0485
:100D60008093DB049093DC0460E172E080911905CC
:100D700090911A05AFDC6AE070E080E090E043DC1F
:100D800081E08093ED0440E052EC61E070E08AE3A2
:100D900094E068DA62E272E08AE394E0F7DC64E20D
:100DA00072E08AE394E0F2DC62E272E08AE394E0CB
:100DB000EDDCEBECF1E04491E5E8F1E02491EFE3C8
:100DC000F1E09491992309F465C0442309F454C0D7
:100DD00050E0FA013197E231F10508F04DC0882763
:100DE000E658FF4F8F4F6CC1809180008F7707C00E
:100DF000809180008F7D03C080918000877F8093E9
:100E000080003AC084B58F7702C084B58F7D84BDE1
:100E100033C08091B0008F7703C08091B0008F7D88
:100E20008093B00029C0809190008F7707C0809197
:100E300090008F7D03C080919000877F8093900009
:100E40001BC08091A0008F7707C08091A0008F7D8C
:100E500003C08091A000877F8093A0000DC0809187
:100E600020018F7707C0809120018F7D03C0809182
:100E70002001877F80932001E92FF0E0EE0FFF1F14
:100E8000E85EFE4FA591B4918FB7F894EC912E2BAC
:100E90002C938FBF83E090E0FADBAC01990F660BD7
:100EA000770B8DE993E0DED984EF882E9924939413
:100EB000A12CB12CE0DB672B682B692B39F4DBDB31
:100EC000623071058105910508F4F3C0D4DB6093AD
:100ED0005F02709360028093610290936202C090FF
:100EE0005B02D0905C02E0905D02F0905E026C15B7
:100EF0007D058E059F0540F460935B0270935C0254
:100F000080935D0290935E02C0905B02D0905C0281
:100F1000E0905D02F0905E029B01AC012C193D094E
:100F20004E095F0969017A013AEFC316D104E10461
:100F3000F10408F4BEC060935B0270935C0280937E
:100F40005D0290935E028092E5049092E604A09286
:100F5000E704B092E8041092E9041092EA041092B7
:100F6000EB041092EC048091DD049091DE04A091DA
:100F7000DF04B091E0048093E1049093E204A09335
:100F8000E304B093E40477DB6093DD047093DE0444
:100F90008093DF049093E0046EDB6093D904709338
:100FA000DA048093DB049093DC0465DB6B017C0145
:100FB0006DE372E08091190590911A058BDB2AE0B0
:100FC00041E050E060E070E08091190590911A05D1
:100FD00096DB64E472E08091190590911A057ADB42
:100FE0002AE0B701A6018091190590911A0587DBC7
:100FF00066E472E08091190590911A056BDB80918F
:10100000DD049091DE04A091DF04B091E004B7010B
:10101000A601481B590B6A0B7B0B2AE0809119052E
:1010200090911A056CDB66E472E08091190590914D
:101030001A0550DB4091DD045091DE046091DF041D
:101040007091E0048091E1049091E204A091E304A6
:10105000B091E404481B590B6A0B7B0B2AE080918A
:10106000190590911A054BDB68E472E0809119052F
:1010700090911A052FDBFFDAAB01BC012AE08091C9
:10108000190590911A053BDB6AE472E0809119051D
:1010900090911A057BDB65E070E080E090E0B3DAC8
:1010A000EADA6093DD047093DE048093DF049093AA
:1010B000E00468EE73E080E090E0A5DA56DAFACE5C
:1010C000EE0FFF1F881F8BBF0790F691E02D19943C
:1010D00081E090E0F89422C0A1E21A2EAA1BBB1B6B
:1010E000FD010DC0AA1FBB1FEE1FFF1FA217B307F4
:1010F000E407F50720F0A21BB30BE40BF50B661F0A
:10110000771F881F991F1A9469F7609570958095CD
:1011100090959B01AC01BD01CF010895F894FFCFDC
:10112000000000004E029701FD01DB01EF01940277
:10113000564D4450565F317C315F564D4450560DEC
:101140000A00200044656275673A20536572696140
:101150006C203020697320526561647900564D44DB
:1011600050455F003A323A007C005F564D4450458E
:0211700000007D
:00000001FF
