:1000000072C000009EC000009CC000009AC00000AA
:1000100098C0000096C0000094C0000092C000008C
:1000200090C000008EC000008CC000008AC000009C
:1000300088C0000086C0000084C0000082C00000AC
:1000400080C000007EC000007CC000007AC00000BC
:1000500078C0000076C0000074C00000B9C4000081
:1000600070C000008CC4000061C400006AC00000C1
:1000700068C0000066C0000064C0000062C00000EC
:1000800060C000005EC000005CC000005AC00000FC
:1000900024C40000F9C3000054C0000052C0000096
:1000A00050C000004EC000004CC000004AC000001C
:1000B00048C0000046C0000044C0000042C000002C
:1000C00040C000003EC000003CC00000B4C30000BF
:1000D00089C3000036C000005CC3000031C30000CB
:1000E00030C00000320511241FBECFEFD1E2DEBFC9
:1000F000CDBF00E00CBF12E0A0E0B2E0ECE2F0E126
:1001000000E00BBF02C007900D92AA35B107D9F7E6
:1001100025E0AAE5B2E001C01D92A732B207E1F7DF
:1001200010E0C3E7D0E000E005C021970109802F6F
:10013000FE014CD7C237D10780E00807B1F743D59D
:1001400073C75ECFCF92DF92EF92FF920F931F9310
:10015000CF93DF93EC016A017B01E889F98982E0A2
:1001600080834115514E61057105A9F060E079E089
:100170008DE390E0A701960135D789019A010150DE
:100180001109210931093695279517950795980189
:1001900001151041A0F0E889F989108260E874E83F
:1001A0008EE190E0A70196011DD7DA01C901019700
:1001B000A109B109B695A795979587959C01EC85FE
:1001C000FD853083EE85FF852083188EEC89FD89BF
:1001D00086E08083EA89FB89808180618083EA8967
:1001E000FB89808188608083EA89FB8980818068BF
:1001F0008083EA89FB8980818F7D8083DF91CF9125
:100200001F910F91FF90EF90DF90CF900895CF92C4
:10021000DF92EF92FF920F931F93CF93DF936C01C6
:100220007A018B01C0E0D0E0CE15DF0589F0D8015E
:100230006D918D01D601ED91FC910190F081E02D41
:10024000C6011995892B11F47E0102C02196ECCFCD
:10025000C701DF91CF911F910F91FF90EF90DF9039
:10026000CF900895FC01A089B1898C91A689B789A6
:1002700082FD0FC09C91818D8F5F8F73228D8217BD
:1002800049F0218DDF01A20FB11D5D969C93818FF6
:1002900008958C910895FC01918D828D981761F0DD
:1002A000828DDF01A80FB11D5D968C91928D9F5FAD
:1002B0009F73928F90E008958FEF9FEF0895FC0158
:1002C000918D828D981731F0828DE80FF11D858D0B
:1002D00090E008958FEF9FEF0895FC01918D228D9E
:1002E000892F90E0805C9F4F821B91098F73992723
:1002F00008958BE692E0F1DF21E0892B09F420E0FC
:10030000822F089588E093E0E8DF21E0892B09F44B
:1003100020E0822F089585EA93E0DFDF21E0892B3A
:1003200009F420E0822F089582E494E0D6DF21E0F2
:10033000892B09F420E0822F0895FC01848DDF01D0
:10034000A80FB11DA35ABF4F2C91848D90E0019648
:100350008F739927848FA689B7892C93A089B18937
:100360008C9180648C93938D848D981306C0028841
:10037000F389E02D80818F7D80830895EF92FF9235
:100380000F931F93CF93DF93EC0181E0888F9B8DB8
:100390008C8D981305C0E889F989808185FD23C07B
:1003A000F62E0B8D10E00F5F1F4F0F731127E02EFD
:1003B0008C8DE8120BC00FB607FCFACFE889F989DB
:1003C000808185FFF5CFCE01B8DFF2CF8B8DFE01A6
:1003D000E80FF11DE35AFF4FF0820B8FEA89FB898A
:1003E0008081806207C0EE89FF896083E889F9898E
:1003F00080818064808381E090E0DF91CF911F91C4
:100400000F91FF90EF900895CF93DF93EC01888DCB
:100410008823C1F0EA89FB89808185FD05C0A88910
:10042000B9898C9186FD0EC00FB607FCF5CF80818F
:1004300085FFF2CFA889B9898C9185FFEDCFCE01D8
:100440007CDFE8CFDF91CF91089580E090E0892BA9
:1004500019F06ADF811116C080E090E0892B19F055
:100460005ADF811112C080E090E0892B19F04ADF39
:1004700081110EC080E090E0892B79F03ADF811184
:100480000AC008950E940000E7CF0E940000EBCF51
:100490000E940000EFCF0C94000008953FB7F8943D
:1004A00080915F0290916002A0916102B09162021E
:1004B00026B5A89B05C02F3F19F00196A11DB11DBF
:1004C0003FBFBA2FA92F982F8827820F911DA11DFA
:1004D000B11DBC01CD0142E0660F771F881F991F37
:1004E0004A95D1F708958F929F92AF92BF92CF9283
:1004F000DF92EF92FF926B017C01D0DF4B015C0138
:10050000C114D104E104F104E9F0C8DFDC01CB013E
:1005100088199909AA09BB09883E9340A105B1052C
:1005200078F321E0C21AD108E108F10888EE880EBC
:1005300083E0981EA11CB11CC114D104E104F10494
:1005400021F7DECFFF90EF90DF90CF90BF90AF907C
:100550009F908F9008952FB7F89460915B027091EF
:100560005C0280915D0290915E022FBF0895DC01D4
:10057000ED91FC910190F081E02D19942FD561153A
:10058000710579F0FB0101900020E9F73197AF0187
:10059000461B570BDC01ED91FC910280F381E02DAD
:1005A000199480E090E008954F925F926F927F924D
:1005B000EF92FF920F931F93CF93DF93CDB7DEB7E8
:1005C000A1970FB6F894DEBF0FBECDBF7C01FA0134
:1005D000CB0119A2223008F42AE08E010F5D1F4FD3
:1005E000422E512C612C712CBF01A3019201FAD42F
:1005F000F901CA01015011096A3014F4605D01C0AB
:10060000695CD8016C93232B242B252B69F7B80147
:10061000C701B5DFA1960FB6F894DEBF0FBECDBF00
:10062000DF91CF911F910F91FF90EF907F906F908E
:100630005F904F9008950F931F93CF93DF93EC013A
:100640009EDF8C016AE272E0CE0199DF800F911F7C
:10065000DF91CF911F910F910895CF92DF92EF928A
:10066000FF920F931F93CF93DF93CDB7DEB7A09781
:100670000FB6F894DEBF0FBECDBF7B018E010F5FBA
:100680001F4F6E0123E1C20ED11CF801EC15FD05D0
:1006900031F1DC012D91CD0130E021933193F6CF82
:1006A000B1E0EB16F10469F1F4F4E114F10431F472
:1006B000D8016D917C9182E494E059DFD8014D918D
:1006C0005D918D01052E000C660B770B20E182E415
:1006D00094E06ADF69E172E082E494E050DF0C1597
:1006E0001D05F1F61AC0F2E0EF16F10481F023E0E7
:1006F000E216F10419F7F801608171818BE692E04E
:10070000DCCFF8016081718185EA93E0D6CFD80112
:100710006D917C9188E093E0D0CF69E172E082E452
:1007200094E0A0960FB6F894DEBF0FBECDBFDF9168
:10073000CF911F910F91FF90EF90DF90CF907BCFE3
:100740001F920F920FB60F9211240BB60F922F9398
:100750003F934F935F936F937F938F939F93AF9349
:10076000BF93EF93FF938BE692E0E7DDFF91EF916C
:10077000BF91AF919F918F917F916F915F914F91B9
:100780003F912F910F900BBE0F900FBE0F901F90B7
:1007900018951F920F920FB60F9211240BB60F925D
:1007A0002F933F934F935F936F937F938F939F9379
:1007B000AF93BF93EF93FF938BE692E053DDFF91EE
:1007C000EF91BF91AF919F918F917F916F915F91C9
:1007D0004F913F912F910F900BBE0F900FBE0F9036
:1007E0001F9018951F920F920FB60F9211240BB6FF
:1007F0000F922F933F934F935F936F937F938F93BA
:100800009F93AF93BF93EF93FF9388E093E095DDC1
:10081000FF91EF91BF91AF919F918F917F916F91D8
:100820005F914F913F912F910F900BBE0F900FBE94
:100830000F901F9018951F920F920FB60F921124D0
:100840000BB60F922F933F934F935F936F937F93CA
:100850008F939F93AF93BF93EF93FF9388E093E0C1
:1008600001DDFF91EF91BF91AF919F918F917F91AA
:100870006F915F914F913F912F910F900BBE0F9011
:100880000FBE0F901F9018951F920F920FB60F92E8
:1008900011240BB60F922F933F934F935F936F9357
:1008A0007F938F939F93AF93BF93EF93FF9385EACB
:1008B00093E043DDFF91EF91BF91AF919F918F91B5
:1008C0007F916F915F914F913F912F910F900BBE50
:1008D0000F900FBE0F901F9018951F920F920FB69A
:1008E0000F9211240BB60F922F933F934F935F9368
:1008F0006F937F938F939F93AF93BF93EF93FF93E8
:1009000085EA93E0AFDCFF91EF91BF91AF919F91AA
:100910008F917F916F915F914F913F912F910F90A8
:100920000BBE0F900FBE0F901F9018951F920F9245
:100930000FB60F9211240BB60F922F933F934F9344
:100940005F936F937F938F939F93AF93BF93EF9337
:10095000FF9382E494E0F1DCFF91EF91BF91AF91BE
:100960009F918F917F916F915F914F913F912F91C7
:100970000F900BBE0F900FBE0F901F9018951F92F7
:100980000F920FB60F9211240BB60F922F933F9335
:100990004F935F936F937F938F939F93AF93BF9387
:1009A000EF93FF9382E494E05DDCFF91EF91BF91C0
:1009B000AF919F918F917F916F915F914F913F91F7
:1009C0002F910F900BBE0F900FBE0F901F90189598
:1009D0001F920F920FB60F9211242F933F938F9374
:1009E0009F93AF93BF9380915B0290915C02A09123
:1009F0005D02B0915E0230915A0223E0230F2D3741
:100A000020F40196A11DB11D05C026E8230F029612
:100A1000A11DB11D20935A0280935B0290935C024A
:100A2000A0935D02B0935E0280915F02909160029C
:100A3000A0916102B09162020196A11DB11D809347
:100A40005F0290936002A0936102B0936202BF9133
:100A5000AF919F918F913F912F910F900FBE0F906B
:100A60001F901895EBE6F2E01382128248EE53E0F5
:100A700060E070E044835583668377838DE092E085
:100A80009183808325E331E03587248724E331E0B7
:100A90003787268720E331E0318B208B21E331E05B
:100AA000338B228B22E331E0358B248B26E331E03C
:100AB000378B268B118E128E138E148EE8E0F3E0A6
:100AC0001382128244835583668377839183808364
:100AD00025ED30E03587248724ED30E03787268701
:100AE00020ED30E0318B208B21ED30E0338B228BF9
:100AF00022ED30E0358B248B26ED30E0378B268BD2
:100B0000118E128E138E148EE5EAF3E01382128298
:100B10004483558366837783918380832DEC30E013
:100B2000358724872CEC30E03787268728EC30E0A7
:100B3000318B208B29EC30E0338B228B2AEC30E098
:100B4000358B248B2EEC30E0378B268B118E128E5A
:100B5000138E148EE2E4F4E01382128244835583F0
:100B6000668377839183808385EC90E09587848783
:100B700084EC90E09787868780EC90E0918B808B67
:100B800081EC90E0938B828B82EC90E0958B848B50
:100B900086EC90E0978B868B118E128E138E148EBE
:100BA000EFEDF4E016821782108611861286138606
:100BB0001486158616861786108A118A128A138A59
:100BC000148A158A0895CF93DF93CDB7DEB7629765
:100BD0000FB6F894DEBF0FBECDBF789484B58260A7
:100BE00084BD84B5816084BD85B5826085BD85B5D1
:100BF000816085BD80916E00816080936E0010924F
:100C000081008091810082608093810080918100C9
:100C1000816080938100809180008160809380005A
:100C20008091B10084608093B1008091B0008160B8
:100C30008093B000809191008260809391008091B8
:100C400091008160809391008091900081608093F9
:100C500090008091A10082608093A1008091A1000A
:100C600081608093A1008091A00081608093A000AA
:100C70008091210182608093210180912101816016
:100C800080932101809120018160809320018091D7
:100C90007A00846080937A0080917A0082608093E9
:100CA0007A0080917A00816080937A0080917A0046
:100CB000806880937A001092C100109223051092F0
:100CC000240510922505109226051092E104109239
:100CD000E2041092E3041092E40460ED77E080E017
:100CE00090E001DC82E494E090932205809321055A
:100CF00040E052EC61E070E025DA2DDC6093E10425
:100D00007093E2048093E3049093E4046BE172E057
:100D1000809121059091220532DC6AE070E080E04C
:100D200090E0E1DB81E08093F50440E052EC61E08B
:100D300070E082E494E006DA69E172E082E494E033
:100D40007ADC6DE272E082E494E075DC69E172E0E5
:100D500082E494E070DC40E855E260E070E085EA0F
:100D600093E0F0D984EF882E99249394A12CB12C90
:100D700019E0CE0101967C010FEF94E0D92ECC242E
:100D8000C39428E0722E33E0632EE5DB672B682BDB
:100D9000692B39F4E0DB623071058105910508F4B7
:100DA000F2C0D9DB60936702709368028093690296
:100DB00090936A022091630230916402409165022F
:100DC00050916602621773078407950740F4609399
:100DD000630270936402809365029093660220918F
:100DE00063023091640240916502509166021B01DA
:100DF0002C01221A330A440A550AA20191012A3F02
:100E000031054105510508F4BEC06093630270933B
:100E1000640280936502909366028092ED04909242
:100E2000EE04A092EF04B092F0041092F10410923C
:100E3000F2041092F3041092F4048091E50490916E
:100E4000E604A091E704B091E8048093E90490934C
:100E5000EA04A093EB04B093EC047DDB6093E5041B
:100E60007093E6048093E7049093E80474DB609346
:100E7000E1047093E2048093E3049093E4046BDB59
:100E80001B012C0166E472E08091210590912205FE
:100E900076DB2AE041E050E060E070E080912105DF
:100EA0009091220581DB6DE472E0809121059091A3
:100EB000220565DB2AE0B201A10180912105909114
:100EC000220572DB6FE472E080912105909122058A
:100ED00056DB8091E5049091E604A091E704B0917F
:100EE000E804B201A101481B590B6A0B7B0B2AE0F5
:100EF000809121059091220557DB6FE472E080918B
:100F00002105909122053BDB4091E5045091E604D8
:100F10006091E7047091E8048091E9049091EA04FB
:100F2000A091EB04B091EC04481B590B6A0B7B0BAE
:100F30002AE0809121059091220536DB61E572E07F
:100F400080912105909122051ADB05DBAB01BC01E4
:100F50002AE0809121059091220526DB63E572E06D
:100F6000809121059091220566DB62E070E080E0CF
:100F700090E0B9DAF0DA6093E5047093E6048093C8
:100F8000E7049093E804E0E0F2E0DE011A96812F96
:100F900001900D928A95E1F7F701212E11922A9482
:100FA000E9F70983DA82CB827C826D8261E070E0AE
:100FB000C70153DB61E070E0CE010A964EDB68EEBC
:100FC00073E080E090E08FDA40DADFCEEE0FFF1FB3
:100FD000881F8BBF0790F691E02D199481E090E077
:100FE000F89422C0A1E21A2EAA1BBB1BFD010DC062
:100FF000AA1FBB1FEE1FFF1FA217B307E407F507C9
:1010000020F0A21BB30BE40BF50B661F771F881FA4
:10101000991F1A9469F760957095809590959B013A
:0C102000AC01BD01CF010895F894FFCF92
:10102C00FF02ABC91115C8003000000000BE01075B
:10103C00016D014B015F0104022000564D445056D6
:10104C005F317C315F564D4450560D0A0044656249
:10105C0075673A2053657269616C20302069732082
:10106C00526561647900564D4450455F003A323AFE
:0A107C00007C005F564D4450450013
:00000001FF
