:100000000FC100003BC1000039C1000037C1000032
:1000100035C1000033C1000031C100002FC1000014
:100020002DC100002BC1000029C1000027C1000024
:1000300025C1000023C1000021C100001FC1000034
:100040001DC100001BC1000019C1000017C1000044
:1000500015C1000013C1000011C100006FC50000F0
:100060000DC1000042C5000017C5000007C1000017
:1000700005C1000003C1000001C10000FFC0000075
:10008000FDC00000FBC00000F9C00000F7C0000088
:10009000DAC40000AFC40000F1C00000EFC00000EF
:1000A000EDC00000EBC00000E9C00000E7C00000A8
:1000B000E5C00000E3C00000E1C00000DFC00000B8
:1000C000DDC00000DBC00000D9C000006AC4000031
:1000D0003FC40000D3C0000012C40000E7C300000A
:1000E000CDC0000019031C030B030F0313035303BC
:1000F000200324032A032E03320338033C03400366
:10010000530346034A034E03E003CD03E303D00346
:10011000D303D603D903DC0300000A0B02090C0D3C
:100120000E080703040100000000000000000000AA
:1001300000000000000000000000000000000000BF
:10014000000000001211100000000000000000007C
:10015000000000000000000000000000000000009F
:100160002200250028002B002E003100340002015F
:100170000000050108010B010000210024002700F8
:100180002A002D00300033000101000004010701A6
:100190000A0105050505070508080808020202020C
:1001A0000A0A080804040404010101010101010113
:1001B0000303030303030303040707070C0C0C0CDE
:1001C0000C0C0C0C020202020606060606060606C7
:1001D0000B0B0B0B0B0B0B0B010210202008081054
:1001E00020401020408002010201080402010102A7
:1001F0000408102040808040201008040201800480
:1002000002018040201008040201080402010102DA
:100210000408102040800102040810204080E805F6
:1002200011241FBECFEFD1E2DEBFCDBF00E00CBF77
:1002300013E0A0E0B2E0E0E6F1E100E00BBF02C0B5
:1002400007900D92AA37B107D9F726E0AAE7B3E0E5
:1002500001C01D92A030B207E1F711E0C0E1D1E08A
:1002600000E005C021970109802FFE016BD7CF3038
:10027000D10780E00807B1F74AD570C7C1CECF9249
:10028000DF92EF92FF920F931F93CF93DF93EC01D6
:100290006A017B01E889F98982E080834115514E2A
:1002A00061057105A9F060E079E08DE390E0A701B8
:1002B000960126D789019A010150110921093109B6
:1002C0003695279517950795980101151041A0F0CF
:1002D000E889F989108260E874E88EE190E0A7016E
:1002E00096010ED7DA01C9010197A109B109B695A6
:1002F000A795979587959C01EC85FD853083EE85C4
:10030000FF852083188EEC89FD8986E08083EA8949
:10031000FB89808180618083EA89FB898081886094
:100320008083EA89FB89808180688083EA89FB89F0
:1003300080818F7D8083DF91CF911F910F91FF90FE
:10034000EF90DF90CF900895CF92DF92EF92FF92DF
:100350000F931F93CF93DF936C017A018B01C0E061
:10036000D0E0CE15DF0589F0D8016D918D01D60161
:10037000ED91FC910190F081E02DC6011995892B3A
:1003800011F47E0102C02196ECCFC701DF91CF911D
:100390001F910F91FF90EF90DF90CF900895FC0197
:1003A000A089B1898C91A689B78982FD0FC09C91E3
:1003B000818D8F5F8F73228D821749F0218DDF0130
:1003C000A20FB11D5D969C93818F08958C91089525
:1003D000FC01918D828D981761F0828DDF01A80F4D
:1003E000B11D5D968C91928D9F5F9F73928F90E06F
:1003F00008958FEF9FEF0895FC01918D828D9817DE
:1004000031F0828DE80FF11D858D90E008958FEF1A
:100410009FEF0895FC01918D228D892F90E0805CE3
:100420009F4F821B91098F73992708958CE893E061
:10043000F1DF21E0892B09F420E0822F089589E281
:1004400094E0E8DF21E0892B09F420E0822F089571
:1004500086EC94E0DFDF21E0892B09F420E0822F95
:10046000089583E695E0D6DF21E0892B09F420E0AA
:10047000822F0895FC01848DDF01A80FB11DA35ABE
:10048000BF4F2C91848D90E001968F739927848FB4
:10049000A689B7892C93A089B1898C9180648C93AB
:1004A000938D848D981306C00288F389E02D808196
:1004B0008F7D80830895EF92FF920F931F93CF93C8
:1004C000DF93EC0181E0888F9B8D8C8D981305C0A4
:1004D000E889F989808185FD23C0F62E0B8D10E017
:1004E0000F5F1F4F0F731127E02E8C8DE8120BC08A
:1004F0000FB607FCFACFE889F989808185FFF5CF2F
:10050000CE01B8DFF2CF8B8DFE01E80FF11DE35A6B
:10051000FF4FF0820B8FEA89FB898081806207C0E0
:10052000EE89FF896083E889F9898081806480830E
:1005300081E090E0DF91CF911F910F91FF90EF90BC
:100540000895CF93DF93EC01888D8823C1F0EA8969
:10055000FB89808185FD05C0A889B9898C9186FDBC
:100560000EC00FB607FCF5CF808185FFF2CFA889BA
:10057000B9898C9185FFEDCFCE017CDFE8CFDF918B
:10058000CF91089580E090E0892B19F06ADF811106
:1005900016C080E090E0892B19F05ADF811112C05B
:1005A00080E090E0892B19F04ADF81110EC080E0D5
:1005B00090E0892B79F03ADF81110AC008950E94FA
:1005C0000000E7CF0E940000EBCF0E940000EFCFB9
:1005D0000C9400000895362F90E0FC01E85EFE4F79
:1005E0004491FC01E852FE4F2491FC01EE56FE4F6F
:1005F0009491992309F46AC0442309F454C050E04B
:10060000FA013197E231F10508F04DC08827EE5824
:10061000FF4F8F4F97C5809180008F7707C08091E3
:1006200080008F7D03C080918000877F8093800051
:100630003AC084B58F7702C084B58F7D84BD33C046
:100640008091B0008F7703C08091B0008F7D809340
:10065000B00029C0809190008F7707C080919000F2
:100660008F7D03C080919000877F809390001BC096
:100670008091A0008F7707C08091A0008F7D03C07C
:100680008091A000877F8093A0000DC08091200101
:100690008F7707C0809120018F7D03C0809120015A
:1006A000877F80932001E92FF0E0EE0FFF1FE25AD1
:1006B000FE4FA591B4918FB7F894EC91311103C01E
:1006C00020952E2301C02E2B2C938FBF08953FB76A
:1006D000F89480917F0390918003A0918103B09161
:1006E000820326B5A89B05C02F3F19F00196A11DD6
:1006F000B11D3FBFBA2FA92F982F8827820F911DB8
:10070000A11DB11DBC01CD0142E0660F771F881FFE
:10071000991F4A95D1F708958F929F92AF92BF92F9
:10072000CF92DF92EF92FF926B017C01D0DF4B0101
:100730005C01C114D104E104F104E9F0C8DFDC017B
:10074000CB0188199909AA09BB09883E9340A105E4
:10075000B10578F321E0C21AD108E108F10888EE6A
:10076000880E83E0981EA11CB11CC114D104E104C1
:10077000F10421F7DECFFF90EF90DF90CF90BF9094
:10078000AF909F908F90089588309105C0F4FC0140
:100790008827EC57FF4F8F4FD5C480E699E0089526
:1007A00080E895E2089580E09BE4089580E096E972
:1007B000089580E091EE089580E993EC08950895FE
:1007C00080EB94E0089580EC92E10895DC01ED91D6
:1007D000FC910190F081E02D1994BCD46115710554
:1007E00079F0FB0101900020E9F73197AF01461B3A
:1007F000570BDC01ED91FC910280F381E02D1994FF
:1008000080E090E0089569E172E083E695E0E6CF4C
:10081000CF93DF93BC0183E695E0E0DFEC01F3DFEB
:100820008C0F9D1FDF91CF9108958F929F92AF9271
:10083000BF920F931F93CF93DF93CDB7DEB7A197EE
:100840000FB6F894DEBF0FBECDBF19A2423008F438
:100850004AE08E010F5D1F4F842E912CA12CB12CEC
:10086000A50194014DD4E62FB901CA010150110927
:10087000EA3014F4E05D01C0E95CD801EC93232B6D
:10088000242B252B69F7B80183E695E0A7DFA19615
:100890000FB6F894DEBF0FBECDBFDF91CF911F9191
:1008A0000F91BF90AF909F908F9008951F920F92DD
:1008B0000FB60F9211240BB60F922F933F934F93C5
:1008C0005F936F937F938F939F93AF93BF93EF93B8
:1008D000FF938CE893E0CEDDFF91EF91BF91AF9154
:1008E0009F918F917F916F915F914F913F912F9148
:1008F0000F900BBE0F900FBE0F901F9018951F9278
:100900000F920FB60F9211240BB60F922F933F93B5
:100910004F935F936F937F938F939F93AF93BF9307
:10092000EF93FF938CE893E03ADDFF91EF91BF9155
:10093000AF919F918F917F916F915F914F913F9177
:100940002F910F900BBE0F900FBE0F901F90189518
:100950001F920F920FB60F9211240BB60F922F9386
:100960003F934F935F936F937F938F939F93AF9337
:10097000BF93EF93FF9389E294E07CDDFF91EF91C9
:10098000BF91AF919F918F917F916F915F914F91A7
:100990003F912F910F900BBE0F900FBE0F901F90A5
:1009A00018951F920F920FB60F9211240BB60F924B
:1009B0002F933F934F935F936F937F938F939F9367
:1009C000AF93BF93EF93FF9389E294E0E8DCFF914C
:1009D000EF91BF91AF919F918F917F916F915F91B7
:1009E0004F913F912F910F900BBE0F900FBE0F9024
:1009F0001F9018951F920F920FB60F9211240BB6ED
:100A00000F922F933F934F935F936F937F938F93A7
:100A10009F93AF93BF93EF93FF9386EC94E02ADD0F
:100A2000FF91EF91BF91AF919F918F917F916F91C6
:100A30005F914F913F912F910F900BBE0F900FBE82
:100A40000F901F9018951F920F920FB60F921124BE
:100A50000BB60F922F933F934F935F936F937F93B8
:100A60008F939F93AF93BF93EF93FF9386EC94E0A4
:100A700096DCFF91EF91BF91AF919F918F917F9104
:100A80006F915F914F913F912F910F900BBE0F90FF
:100A90000FBE0F901F9018951F920F920FB60F92D6
:100AA00011240BB60F922F933F934F935F936F9345
:100AB0007F938F939F93AF93BF93EF93FF9383E6BF
:100AC00095E0D8DCFF91EF91BF91AF919F918F910D
:100AD0007F916F915F914F913F912F910F900BBE3E
:100AE0000F900FBE0F901F9018951F920F920FB688
:100AF0000F9211240BB60F922F933F934F935F9356
:100B00006F937F938F939F93AF93BF93EF93FF93D5
:100B100083E695E044DCFF91EF91BF91AF919F9107
:100B20008F917F916F915F914F913F912F910F9096
:100B30000BBE0F900FBE0F901F9018951F920F9233
:100B40000FB60F9211242F933F938F939F93AF93E0
:100B5000BF9380917B0390917C03A0917D03B09122
:100B60007E0330917A0323E0230F2D3720F4019682
:100B7000A11DB11D05C026E8230F0296A11DB11DC0
:100B800020937A0380937B0390937C03A0937D034F
:100B9000B0937E0380917F0390918003A0918103A5
:100BA000B09182030196A11DB11D80937F039093A4
:100BB0008003A0938103B0938203BF91AF919F9173
:100BC0008F913F912F910F900FBE0F901F9018950E
:100BD000ECE8F3E01382128248EE53E060E070E04C
:100BE00044835583668377838DE092E0918380838D
:100BF00025E331E03587248724E331E037872687F2
:100C000020E331E0318B208B21E331E0338B228BE9
:100C100022E331E0358B248B26E331E0378B268BC2
:100C2000118E128E138E148EE9E2F4E0138212827A
:100C300044835583668377839183808325ED30E0F9
:100C40003587248724ED30E03787268720ED30E094
:100C5000318B208B21ED30E0338B228B22ED30E085
:100C6000358B248B26ED30E0378B268B118E128E40
:100C7000138E148EE6ECF4E01382128244835583C3
:100C800066837783918380832DEC30E035872487DA
:100C90002CEC30E03787268728EC30E0318B208B36
:100CA00029EC30E0338B228B2AEC30E0358B248B1F
:100CB0002EEC30E0378B268B118E128E138E148E15
:100CC000E3E6F5E0138212824483558366837783DB
:100CD0009183808385EC90E09587848784EC90E015
:100CE0009787868780EC90E0918B808B81EC90E0F9
:100CF000938B828B82EC90E0958B848B86EC90E0DA
:100D0000978B868B118E128E138E148E0895CF932F
:100D1000DF93CDB7DEB7A9970FB6F894DEBF0FBE4D
:100D2000CDBF789484B5826084BD84B5816084BD74
:100D300085B5826085BD85B5816085BD80916E0079
:100D4000816080936E0010928100809181008260AA
:100D500080938100809181008160809381008091E7
:100D600080008160809380008091B10084608093D6
:100D7000B1008091B00081608093B00080919100BB
:100D800082608093910080919100816080939100B6
:100D9000809190008160809390008091A10082609A
:100DA0008093A1008091A10081608093A100809137
:100DB000A00081608093A0008091210182608093D7
:100DC0002101809121018160809321018091200186
:100DD00081608093200180917A00846080937A0002
:100DE00080917A00826080937A0080917A0081609D
:100DF00080937A0080917A00806880937A001092C4
:100E0000C100EEEEF1E02491E8EAF1E0849188235C
:100E100099F090E0880F991FFC01E858FE4FA591CA
:100E2000B491FC01E25AFE4F859194918FB7F894EA
:100E3000EC91E22BEC938FBF61E086E1CCDB40E0EC
:100E400052EC61E070E083E695E019DA8CE192E023
:100E5000DFDC8EE192E0DCDC8CE192E0D9DC83E047
:100E600090E092DCAC01990F660B770B86EC94E076
:100E700006DA60E086E1AFDB64E670E080E090E0F7
:100E80004BDC67E372E086EC94E0A8DC62E370E0A0
:100E900080E090E041DC6AE372E086EC94E09EDC66
:100EA00062E370E080E090E037DC60E472E086ECC2
:100EB00094E094DC62E370E080E090E02DDC67E495
:100EC00072E086EC94E08ADC62E370E080E090E01F
:100ED00023DC60E572E086EC94E080DC62E370E0A5
:100EE00080E090E019DC68E572E086EC94E076DC66
:100EF00062E370E080E090E00FDC62E370E080E0AD
:100F000090E00ADC80DC80E692E082DC86EC94E013
:100F100081DA892B41F086EC94E05ADABC0183E651
:100F200095E054DCF3CF6FDC62E370E080E090E0AA
:100F3000F3DB61E086E14FDB60E086E14CDB64E6F9
:100F400070E080E090E0E8DB62E370E080E090E059
:100F5000E3DB62E872E086EC94E040DC62E370E0A0
:100F600080E090E0D9DB01E010E086EC94E052DA1A
:100F7000892BC9F086EC94E02BDAF82E6AE070E059
:100F800080E090E0C9DB0130110521F43CDC88E809
:100F900092E03EDC6F2DFF0C770B83E695E016DCCC
:100FA0000F5F1F4FE2CF62E370E080E090E0B4DBC0
:100FB00061E086E110DB99E0B92E7E0183E1E80E65
:100FC000F11C83E8C82E83E0D82E00E010E086EC08
:100FD00094E020DA892BD9F386EC94E0F9D9F60174
:100FE00081936F01BC01990F880B990B40E11DDCC7
:100FF00000FD0BC0E0916305F09164050190F08164
:10100000E02D60E283E695E019950F5F1F4F0930F0
:101010001105E9F6F8DB86EC94E093DA809183031E
:101020008430B9F140F4823071F180F58130A1F55E
:1010300086E093E033C08D3F19F128F48C3F61F5D1
:101040008DEE92E02BC08E3FC1F08F3F29F58EE9E7
:1010500092E0DEDB83EB92E0DBDBE0E0F2E0DE015E
:1010600091968B2D01900D928A95E1F7DE01919674
:10107000CE0101966C01FC0113C088EB92E00EC01A
:1010800085ED92E00BC08AE193E008C080E393E035
:1010900005C083E493E002C08AE593E0B9DB2EC08B
:1010A000EE15FF0529F08D9190E081939193F8CF93
:1010B00000E010E00930110509F14601F6016191E7
:1010C00071916F0186EC94E081DBF40160817181A4
:1010D000072E000C880B990B40E1A7DB00FD05C033
:1010E0006CE172E083E695E079DB0830110519F4D4
:1010F0008BE192E08DDB0F5F1F4FDCCF43DA61CFD6
:10110000A1E21A2EAA1BBB1BFD010DC0AA1FBB1F0B
:10111000EE1FFF1FA217B307E407F50720F0A21B7D
:10112000B30BE40BF50B661F771F881F991F1A94EA
:1011300069F760957095809590959B01AC01BD0114
:10114000CF010895EE0FFF1F881F8BBF0790F69108
:10115000E02D199481E090E0F89400C0F894FFCF5E
:10116000FFFFFFFFFFFFFFFFFF000000005B02A487
:10117000010A02E801FC01A1020D0A0020004465F9
:101180006275673A2053657269616C20302069731B
:101190002052656164790041540041542B5038005D
:1011A00041542B4655330041542B423936303000E0
:1011B00041542B433030310041542B55384E3100CF
:1011C00048432D3132206D6F64756C652068617302
:1011D000206265656E20636F6E666967757265640F
:1011E0003A0041542B52580048432D313220437568
:1011F0007272656E7420636F6E6669673A0044654B
:10120000627567207061636B6574207265636976CF
:10121000656400746573740052465F436F6E6E655B
:101220006374696F6E207061636B657420726563AF
:10123000697665640052585F526561647920706117
:10124000636B657420726563697665640054656CD0
:10125000656D65747279207061636B657420726569
:101260006369766564004779726F207061636B65AE
:101270007420726563697665640053776974636886
:10128000207061636B6574207265636976656400C4
:10129000506F74207061636B65742072656369764A
:1012A000656400427574746F6E73207061636B6562
:1012B000742072656369766564004552524F52200E
:1012C00043616E277420646574656374206D657373
:0A12D0007361676520747970650092
:00000001FF
